:100000000C942A000C9447000C9447000C94470071
:100010000C9447000C9447000C9447000C94470044
:100020000C9447000C9447000C9447000C94470034
:100030000C9447000C9447000C9447000C94470024
:100040000C9447000C9447000C9447000C94470014
:100050000C94470011241FBECFE5D8E0DEBFCDBF12
:1000600010E0A0E6B0E0EAEDFAE002C005900D92E3
:10007000AC3CB107D9F720E0ACECB0E001C01D9278
:10008000AC3CB207E1F70E9449000C946B050C945C
:1000900000000E944E000E947C00FDCF0E94FA00EA
:1000A0000E94910184E690E00E94C9010E94F20141
:1000B00084E790E00E94B3018FE19EE40197F1F79D
:1000C00000C000000E94D7000E9412010E94F201AD
:1000D00085E890E00E94B3019FEF24E38CE091500B
:1000E00020408040E1F700C000000E94F20185E955
:1000F00090E00E94B3010895DF92EF92FF920F9378
:100100001F93CF93DF93CDB7DEB764970FB6F89404
:10011000DEBF0FBECDBF0E942301D82E0E942A0150
:10012000182F0E94E50186EA90E00E94B3011F9219
:100130001F930F2EF1EBEF2EF0E0FF2EF02DFF922C
:10014000EF928E010F5F1F4F1F930F930E9481024A
:10015000C8010E94B30184EB90E00E94B3010E94A9
:10016000F20180EC90E00E94B3011F92DF92FF92B7
:10017000EF921F930F930E948102C8010E94B30166
:1001800084EB90E00E94B3010FB6F894DEBF0FBE7F
:10019000CDBF64960FB6F894DEBF0FBECDBFDF9122
:1001A000CF911F910F91FF90EF90DF90089580E81D
:1001B00086B986B1876086B980E487B917B8089593
:1001C00020E227B9913479F497B1907E97B997B12D
:1001D000892B87B986B1806486B9349BFECF85B1FF
:1001E00017B890E0089580E090E0089506B607FE05
:1001F000FDCF089582E680B984E086BF11B80895E6
:1002000084EA86BF0E94F600089583B984E886BF19
:100210000E94F6000895860F0E940501089584E962
:1002200086BF089560E070E0809162009091630065
:100230000E941C0260E070E080916000909161007B
:100240000E941C02089580916200909163000E94B8
:10025000E000089580916000909161000E94E000AC
:10026000089583B182600E94050183B18D7F0E9451
:1002700005010895CF93C82F83B18E7F0E94050199
:1002800083B18F700E94050183B1C07F8C2B0E94C7
:1002900005010E943101CF910895CF93C82F83B1FA
:1002A0008E7F0E94050183B18F700E94050183B18A
:1002B0009C2F907F892B0E9405010E94310183B100
:1002C0008F700E94050123B130E1C39FC00111244A
:1002D000822B0E9405010E943101CF910895CF9396
:1002E000C82F83B181600E94050183B18F700E9485
:1002F000050183B19C2F907F892B0E9405010E94EC
:10030000310183B18F700E94050123B130E1C39F99
:10031000C0011124822B0E9405010E943101CF915E
:1003200008950E94000160E070E080E70E940B01E8
:1003300080E30E943A0180E30E943A0180E20E9439
:100340003A0188E20E944D018CE00E944D0181E05B
:100350000E944D0186E00E944D0180E80E944D01FF
:100360000E940F010895CF93DF93EC010E940001DA
:1003700060E070E080E70E940B0103C021960E94BC
:100380006F0188818111FACF0E940F01DF91CF9117
:100390000895CF93DF93EC010E94000160E070E0CC
:1003A00080E70E940B0181E00E944D0180E80E94DD
:1003B0004D0103C021960E946F0188818111FACFFF
:1003C0000E940F01DF91CF9108950E94000160E02B
:1003D00070E080E70E940B0180E80E944D010E94BE
:1003E0000F0108950E94000160E070E080E70E9424
:1003F0000B0180EC0E944D010E940F0108950F93A4
:100400001F93823459F018F4813489F004C0833486
:1004100041F0843449F080E090E00BC0842F952FA8
:1004200008C0822F932F05C0802F912F02C0862FE6
:10043000972F1F910F910895CF92DF92EF92FF9225
:100440000F931F93CF93DF93C82ED92EEB0101E3B7
:1004500010E024E330E047E350E06AE370E0892FE6
:100460000E94FF017C01209779F4DC012C9181E04E
:1004700090E002C0880F991FCA94E2F7809582230A
:100480008C9380E090E034C0C130D10571F4FC0160
:10049000208181E090E002C0880F991FCA94E2F7A2
:1004A000822B808380E090E023C02297F9F402E35E
:1004B00010E025E330E048E350E06BE370E08D2D81
:1004C0000E94FF01FC01D7019C9121E030E002C0B5
:1004D000220F331FCA94E2F7822F809598239C93B2
:1004E0008081282B208380E090E002C08FEF9FEF77
:1004F000DF91CF911F910F91FF90EF90DF90CF9000
:100500000895AEE0B0E0E7E8F2E00C9442050D8912
:100510001E8986E08C831A8309838FEF9FE79E8371
:100520008D83AE01475E5F4F6F89788DCE01019656
:100530000E94A302EF81F885E00FF11F10822E9632
:10054000E4E00C945E05ABE0B0E0E9EAF2E00C9484
:1005500034056C017B018A01FC01178216828381BC
:1005600081FFCCC1CE0101963C01F6019381F701D8
:1005700093FD859193FF81917F01882309F4BAC18E
:10058000853239F493FD859193FF81917F01853206
:1005900029F4B60190E00E949A04E7CF912C212C17
:1005A000312CFFE1F315D8F08B3279F038F480323A
:1005B00079F08332A1F4232D20611DC08D3261F0CA
:1005C000803369F4232D216016C0832D8260382E7C
:1005D000E32DE4603E2E2AC0F32DF8601DC037FCE9
:1005E0002DC020ED280F2A3040F08E32B9F436FCB1
:1005F00081C1232D2064322E19C036FE06C08AE048
:10060000989E200D1124922E11C0EAE02E9E200DFE
:100610001124222EF32DF0623F2E08C08C3621F4D7
:10062000832D8068382E02C0883641F4F70193FD8F
:10063000859193FF81917F018111B3CF982F9F7D89
:100640009554933028F40C5F1F4F9FE399830DC09E
:10065000833631F0833771F0833509F059C021C0FA
:10066000F801808189830E5F1F4F88248394912C29
:10067000530113C02801F2E04F0E511CF801A08075
:10068000B18036FE03C0692D70E002C06FEF7FEFCE
:10069000C5010E948F044C018201F32DFF773F2E8C
:1006A00016C0280122E0420E511CF801A080B18042
:1006B00036FE03C0692D70E002C06FEF7FEFC50109
:1006C0000E9484044C01F32DF0683F2E820133FC1C
:1006D0001BC0822D90E088169906B0F4B60180E226
:1006E00090E00E949A042A94F4CFF50137FC85919A
:1006F00037FE81915F01B60190E00E949A042110BB
:100700002A9421E0821A91088114910471F7E8C0BB
:10071000843611F0893641F5F80137FE07C0608153
:100720007181828193810C5F1F4F08C0608171814C
:10073000072E000C880B990B0E5F1F4FF32DFF76D1
:100740003F2E97FF09C090958095709561957F4FDA
:100750008F4F9F4FF0683F2E2AE030E0A3010E94A8
:10076000D604882E861845C0853731F4232D2F7E78
:10077000B22E2AE030E025C0932D997FB92E8F3616
:10078000C1F018F4883579F0B5C0803719F0883792
:1007900021F0B0C0E92FE061BE2EB4FE0DC0FB2DEC
:1007A000F460BF2E09C034FE0AC0292F2660B22E85
:1007B00006C028E030E005C020E130E002C020E1C2
:1007C00032E0F801B7FE07C06081718182819381B8
:1007D0000C5F1F4F06C06081718180E090E00E5F6A
:1007E0001F4FA3010E94D604882E8618FB2DFF7789
:1007F0003F2E36FE0DC0232D2E7FA22E891458F4D5
:1008000034FE0BC032FC09C0832D8E7EA82E05C09D
:10081000B82CA32C03C0B82C01C0B92CA4FE0FC067
:10082000FE01E80DF11D8081803321F49A2D997E1F
:10083000A92E09C0A2FE06C0B394B39404C08A2DA9
:10084000867809F0B394A3FC11C0A0FE06C0B214D0
:1008500088F4280C922C9B180EC0B21460F4B601D8
:1008600080E290E00E949A04B394F7CFB21418F497
:100870002B1802C0982C212CA4FE10C0B60180E3D6
:1008800090E00E949A04A2FE17C0A1FC03C088E772
:1008900090E002C088E590E0B6010CC08A2D867811
:1008A00059F0A1FE02C08BE201C080E2A7FC8DE2FC
:1008B000B60190E00E949A04891438F4B60180E3EE
:1008C00090E00E949A049A94F7CF8A94F301E80D7D
:1008D000F11D8081B60190E00E949A048110F5CF4D
:1008E000222009F442CEB60180E290E00E949A04F0
:1008F0002A94F6CFF6018681978102C08FEF9FEF91
:100900002B96E2E10C945005FC010590615070407B
:100910000110D8F7809590958E0F9F1F0895FC01C8
:100920006150704001900110D8F7809590958E0F1E
:100930009F1F08950F931F93CF93DF93FB01238194
:1009400021FD03C08FEF9FEF2CC022FF16C0468110
:100950005781248135814217530744F4A081B18126
:100960009D012F5F3F4F318320838C9326813781F8
:100970002F5F3F4F3783268314C08B01EC01FB01AF
:100980000084F185E02D0995892BE1F6D8011696B2
:100990008D919C911797019617969C938E9316971D
:1009A000CE01DF91CF911F910F910895FA01AA27EF
:1009B000283051F1203181F1E8946F936E7F6E5FA2
:1009C0007F4F8F4F9F4FAF4FB1E03ED0B4E03CD050
:1009D000670F781F891F9A1FA11D680F791F8A1F33
:1009E000911DA11D6A0F711D811D911DA11D20D09A
:1009F00009F468943F912AE0269F11243019305D54
:100A00003193DEF6CF010895462F4770405D419344
:100A1000B3E00FD0C9F7F6CF462F4F70405D4A3391
:100A200018F0495D31FD4052419302D0A9F7EACF59
:100A3000B4E0A6959795879577956795BA95C9F788
:100A400000976105710508959B01AC010A2E06947B
:100A50005795479537952795BA95C9F7620F731F34
:100A6000841F951FA01D08952F923F924F925F9271
:100A70006F927F928F929F92AF92BF92CF92DF92AE
:100A8000EF92FF920F931F93CF93DF93CDB7DEB713
:100A9000CA1BDB0B0FB6F894DEBF0FBECDBF0994A7
:100AA0002A88398848885F846E847D848C849B84FE
:100AB000AA84B984C884DF80EE80FD800C811B810C
:100AC000AA81B981CE0FD11D0FB6F894DEBF0FBE3B
:0A0AD000CDBFED010895F894FFCFAB
:100ADA000241014147726F7570203437204D6173AE
:100AEA0074657200496E697469616C697A696E67C6
:100AFA002E2E2E2E00496E697420436F6D706C6520
:100B0A007465642E0052756E6E696E67202020200F
:100B1A00202020202000466F7277617264203A20DC
:100B2A0000256400202020202020202020202000D2
:0C0B3A0052696768742020203A200000F7
:00000001FF
