:100000000C9448000C9465000C9465000C94EA0272
:100010000C9465000C9465000C9465000C946500CC
:100020000C9465000C9465000C9465000C946500BC
:100030000C9465000C9465000C9465000C946500AC
:100040000C9465000C9465000C9465000C9465009C
:100050000C9465004E414E494E495459494E46CD87
:10006000CCCC3D0AD7233C17B7D13877CC2B32956F
:1000700095E6241FB14F0A000020410000C842004D
:10008000401C4620BCBE4CCA1B0E5AAEC59D740017
:1000900011241FBECFE5D8E0DEBFCDBF10E0A0E643
:1000A000B0E0ECE5FFE002C005900D92A63EB1077E
:1000B000D9F720E0A6EEB0E001C01D92A53FB2073F
:1000C000E1F70E9467000C94AC070C9400000E94BA
:1000D0006C000E941501FDCFEF92FF920F931F93CA
:1000E000CF93DF93CDB7DEB7A8970FB6F894DEBFF6
:1000F0000FBECDBF0E941A010E947F0388E790E0E7
:100100000E94C7030E94000487E890E00E94B103A8
:100110008FE19EE40197F1F700C000000E948F0478
:1001200069E070E081E00E9499020E94000488E981
:1001300090E00E94B1039FEFE4E3FCE09150E040C7
:10014000F040E1F700C000000E94E3030E94F303C7
:1001500088EA90E00E94B1032FEF84E39CE02150F5
:1001600080409040E1F700C000000E94F30387EB5D
:1001700090E00E94B1030E94000464E170E0CE01AF
:1001800001960E94C201E12CF12CB701CE0101962B
:100190000E94C00509EE10E0F8016083718382833C
:1001A00093830E94E3030E94F30388EC90E00E9493
:1001B000B1030E94000464E170E0CE0145960E9404
:1001C000C201B701CE0145960E94C005F8016483C3
:1001D0007583868397830E94E30389ED90E00E94F4
:1001E000B103CE0101960E94B1030E9400048FED7D
:1001F00090E00E94B103CE0145960E94B103FFEF4B
:1002000023ED80E3F15020408040E1F700C0000082
:10021000A8960FB6F894DEBF0FBECDBFDF91CF9189
:100220001F910F91FF90EF900895089506B607FE75
:10023000FDCF089582E680B984E086BF11B80895A5
:1002400084EA86BF0E941601089583B984E886BFB8
:100250000E9416010895860F0E942501089584E9E1
:1002600086BF089580EF8ABB8FEF8BBB8BB38F70F7
:100270008BBB000089B38F708093F1008F30B1F792
:100280008FE39CE90197F1F700C0000089B38F70FC
:100290008093F1008F30A1F39FEF29EF80E0915020
:1002A00020408040E1F700C0000089B38F70809348
:1002B000F1008F3029F38FEE8BBB000089B38F7074
:1002C0008093F1008F3019F01092F20027C08FED6B
:1002D0008BBB000089B38F708093F1008F3021F0C9
:1002E00081E08093F2001AC08FEB8BBB000089B3D2
:1002F0008F708093F1008F3021F082E08093F200C4
:100300000DC08FE78BBB000089B38F708093F10025
:100310008F3009F4A7CF83E08093F2008091F10041
:100320008E3059F4E091F200F0E0EE0FFF1FEE0F77
:10033000FF1FE05AFF4F808108958D3059F4E091FE
:10034000F200F0E0EE0FFF1FEE0FFF1FE05AFF4F2D
:10035000818108958B3059F4E091F200F0E0EE0FC6
:10036000FF1FEE0FFF1FE05AFF4F82810895E091BB
:10037000F200F0E0EE0FFF1FEE0FFF1FE05AFF4FFD
:1003800083810895CF92DF92EF92FF921F93CF93D4
:10039000DF936C017B01C0E0D0E010C00E9432010D
:1003A000182F0E94A1031D3321F4CC0DDD1D1882EE
:1003B00008C0F601EC0FFD1F10832196CE15DF0556
:1003C0006CF3DF91CF911F91FF90EF90DF90CF9072
:1003D000089597B3906B97BB98B3906198BB90E0EA
:1003E000880F991F880F991F80658DB98DB1962F41
:1003F0009370892B8DB962FF02C081E08EB9089598
:100400008FB9779BFECF8FB1089587B3826087BB8A
:1004100060E080E00E94E90185B7877F85BF85B7EE
:100420008B7F85BF8BB780628BBF089598B39F7E0B
:1004300098BB0E94000280E00E94000298B3906185
:1004400098BB0895EF92FF920F931F93CF93DF9382
:10045000D82F8B01C42F863049F018F4823058F51C
:1004600005C0873081F08830A9F025C083E00E9464
:100470001602C2E0C80F88B38F7E88BB8AE28D0F58
:100480000E94000218C088B38F7E88BB80EA0E9459
:10049000000211C088B38F7E88BB80EB0E940002EF
:1004A0000AC078018FEFE81AF80AF80180810E94EB
:1004B0000002CD2F8701DFEFDC0FC111F2CF88B32F
:1004C000806188BBDF91CF911F910F91FF90EF90DA
:1004D0000895CF93DF93C62F98B39F7E98BB803249
:1004E00040F480620E940002D82F8C2F0E940002EC
:1004F00008C00E940002D82FCC2319F08C2F0E9434
:10050000000288B3806188BB8D2FDF91CF91089561
:10051000863018F4823018F006C0863049F440E086
:100520000E9422020895FB016081865F0E94690299
:1005300008950F931F93CF93C82F8B010E9405023C
:1005400063E083E00E946902B80186E00E948802AD
:10055000B80180E00E94880261E082E00E946902A6
:1005600061E081E00E946902C13021F460E181E133
:100570000E94690263E780E50E94690260E08DE104
:100580000E9469026FE184E00E94690286E00E9495
:100590001602817D682F6E6086E00E94690268E223
:1005A00085E00E946902C13011F06EE001C06FE089
:1005B00080E00E946902C13019F488B3826088BB70
:1005C0008FE097E20197F1F700C00000CF911F91F3
:1005D0000F9108951F920F920FB60F9211242F932F
:1005E0003F934F935F936F937F938F939F93AF93BB
:1005F000BF93EF93FF9360E787E00E94690286FF55
:1006000003C091E09093E70085FF03C091E09093D1
:10061000E80084FF03C081E08093E600FF91EF9142
:10062000BF91AF919F918F917F916F915F914F910A
:100630003F912F910F900FBE0F901F90189583B18F
:1006400082600E94250183B18D7F0E94250108955B
:10065000CF93C82F83B18E7F0E94250183B18F7005
:100660000E94250183B1C07F8C2B0E9425010E942E
:100670001F03CF910895CF93C82F83B18E7F0E941F
:10068000250183B18F700E94250183B19C2F907F3B
:10069000892B0E9425010E941F0383B18F700E9445
:1006A000250123B130E1C39FC0011124822B0E9498
:1006B00025010E941F03CF910895CF93C82F83B1C6
:1006C00081600E94250183B18F700E94250183B152
:1006D0009C2F907F892B0E9425010E941F0383B1CC
:1006E0008F700E94250123B130E1C39FC001112406
:1006F000822B0E9425010E941F03CF9108950E9422
:10070000200160E070E080E70E942B0180E30E94FE
:10071000280380E30E94280380E20E94280388E2E5
:100720000E943B038CE00E943B0381E00E943B035C
:1007300086E00E943B0380E80E943B030E942F0159
:100740000895CF93C82F0E94200160E070E080E7F9
:100750000E942B018C2F0E945D030E942F01CF91DC
:100760000895CF93DF93EC010E94200160E070E0D8
:1007700080E70E942B0103C021960E945D038881BF
:100780008111FACF0E942F01DF91CF910895CF936D
:10079000DF93EC010E94200160E070E080E70E949E
:1007A0002B0181E00E943B0380E80E943B0303C0D1
:1007B00021960E945D0388818111FACF0E942F014A
:1007C000DF91CF9108950E94200160E070E080E702
:1007D0000E942B0181E00E943B0380E80E943B03C2
:1007E0000E942F0108950E94200160E070E080E7E0
:1007F0000E942B0180E80E943B030E942F01089574
:100800000E94200160E070E080E70E942B0180ECF4
:100810000E943B030E942F0108950F931F9382347F
:1008200059F018F4813489F004C0833441F08434E1
:1008300049F080E090E00BC0842F952F08C0822FF4
:10084000932F05C0802F912F02C0862F972F1F91C5
:100850000F910895CF92DF92EF92FF920F931F9323
:10086000CF93DF93C82ED92EEB0101E310E024E3F0
:1008700030E047E350E06AE370E0892F0E940D0406
:100880007C01209779F4DC012C9181E090E002C09A
:10089000880F991FCA94E2F7809582238C9380E099
:1008A00090E034C0C130D10571F4FC01208181E0B9
:1008B00090E002C0880F991FCA94E2F7822B8083D0
:1008C00080E090E023C02297F9F402E310E025E3F2
:1008D00030E048E350E06BE370E08D2D0E940D04A2
:1008E000FC01D7019C9121E030E002C0220F331FB0
:1008F000CA94E2F7822F809598239C938081282BBD
:10090000208380E090E002C08FEF9FEFDF91CF91D6
:100910001F910F91FF90EF90DF90CF90089561E0CD
:1009200070E080917600909177000E942A0461E047
:1009300070E080917400909175000E942A0461E03B
:1009400070E080917000909171000E942A0460E034
:1009500070E080917200909173000E942A041DB88B
:100960008DB18DB98DB18DB98DB180618DB98DB1DC
:100970008DB98DB18DB98DB181608DB98DB1806426
:100980008DB98EB18E7F8EB90895E89409C097FB1A
:100990003EF490958095709561957F4F8F4F9F4F56
:1009A0009923A9F0F92F96E9BB279395F69587959A
:1009B00077956795B795F111F8CFFAF4BB0F11F45D
:1009C00060FF1BC06F5F7F4F8F4F9F4F16C0882304
:1009D00011F096E911C0772321F09EE8872F762F3A
:1009E00005C0662371F096E8862F70E060E02AF07B
:1009F0009A95660F771F881FDAF7880F9695879567
:100A000097F9089557FD9058440F551F59F05F3FCF
:100A100071F04795880F97FB991F61F09F3F79F020
:100A200087950895121613061406551FF2CF4695A2
:100A3000F1DF08C0161617061806991FF1CF869524
:100A40007105610508940895E894BB276627772708
:100A5000CB0197F908950E943E050C94AF050E94C2
:100A6000A10538F00E94A80520F0952311F00C9400
:100A700098050C949E0511240C9425050E940205EE
:100A800070F3959FC1F3950F50E0551F629FF001E1
:100A9000729FBB27F00DB11D639FAA27F00DB11DFA
:100AA000AA1F649F6627B00DA11D661F829F222783
:100AB000B00DA11D621F739FB00DA11D621F839F0A
:100AC000A00D611D221F749F3327A00D611D231FE0
:100AD000849F600D211D822F762F6A2F11249F572E
:100AE00050409AF0F1F088234AF0EE0FFF1FBB1F31
:100AF000661F771F881F91505040A9F79E3F5105F0
:100B000080F00C9498050C9425055F3FE4F3983E23
:100B1000D4F3869577956795B795F795E7959F5F99
:100B2000C1F7FE2B880F911D9695879597F908952B
:100B300097F99F6780E870E060E008959FEF80EC90
:100B4000089500240A941616170618060906089533
:100B500000240A9412161306140605060895092E99
:100B60000394000C11F4882352F0BB0F40F4BF2B08
:100B700011F460FF04C06F5F7F4F8F4F9F4F089548
:100B8000A0E0B0E0E6ECF5E00C946C07EC016B0142
:100B90006115710519F0FB01918380837E01FFEFE0
:100BA000EF1AFF0A0881802F90E00E940E07892B20
:100BB00011F0E701F3CF0D3239F47E0182E0E80E47
:100BC000F11C098111E008C00B3229F47E0192E08A
:100BD000E90EF11C098110E0E701219743E050E0A4
:100BE0006CE570E0CE010E941707892BC1F42396B3
:100BF00045E050E067E570E0CE010E941707892BC1
:100C000009F42596C114D10419F0F601D183C083EB
:100C10001111F6C060E070E080E89FE7FAC043E0A1
:100C200050E064E570E0CE010E941707892B59F46B
:100C3000C114D10409F4E9C0F2E0EF0EF11CF60191
:100C4000F182E082E2C020E030E0A901C0E0D0E023
:100C5000F70180EDA82EA00E89E08A1530F1912FC2
:100C60009260B92E812F887012FF04C0811124C0B8
:100C7000219622C081112197A5E0B0E00E945B0778
:100C8000DC01CB01880F991FAA1FBB1F9C01AD017E
:100C90002A0D311D411D511D283989E938074807A2
:100CA00089E1580748F0166006C09EEFA9120AC0F5
:100CB00013FD40C01860B12E8FEFE81AF80A0081CA
:100CC0001B2DC6CF802F8F7D8534A1F580818D327D
:100CD00011F4106106C08B3221F0319661E070E0B2
:100CE00004C08181329662E070E080538A3018F04F
:100CF000E61BF70B1FC060E070E060389CE07907EE
:100D00005CF4DB01AA0FBB1FAA0FBB1F6A0F7B1F7E
:100D1000660F771F680F711D3196DF0111978C9157
:100D200080538A3050F314FF03C0719561957109A7
:100D3000C60FD71F11FF08C0C114D10429F0CF017D
:100D40000197F60191838083CA01B9010E94C5040D
:100D5000212F2370233019F04B015C0106C04B0199
:100D60005C01B7FAB094B7F8B09420E030E0A90184
:100D7000C501B4010E942F07882309F43EC0D7FFA4
:100D800006C0D195C195D10903E710E002C00BE878
:100D900010E06801F8E1CF1AD10890E2E92EF12CB9
:100DA000CE15DF0574F0F8012591359145915491E8
:100DB000C501B4010E942B054B015C01CE19DF096E
:100DC000EFCF04501109F594E7940C151D0541F778
:100DD0008A2D880F8B2D881F8F3F49F020E030E04F
:100DE000A901C501B4010E942F07811106C082E24A
:100DF00090E09093F4008093F300C501B40109C022
:100E000060E070E080E89FEF04C060E070E080EC9C
:100E10009FE7CDB7DEB7ECE00C94880791110C94F6
:100E20005807803219F089508550C8F70895FB01A2
:100E3000DC014150504088F08D9181341CF08B359D
:100E40000CF4805E659161341CF06B350CF4605ECF
:100E5000861B611171F3990B0895881BFCCF0E94CA
:100E6000340708F481E00895990F0008550FAA0B84
:100E7000E0E8FEEF16161706E807F907C0F01216AD
:100E80001306E407F50798F0621B730B840B950BB0
:100E900039F40A2661F0232B242B252B21F4089505
:100EA0000A2609F4A140A6958FEF811D811D0895A2
:100EB0009927882708950E949D07A59F900DB49FAC
:100EC000900DA49F800D911D112408952F923F92A3
:100ED0004F925F926F927F928F929F92AF92BF924A
:100EE000CF92DF92EF92FF920F931F93CF93DF93F6
:100EF000CDB7DEB7CA1BDB0B0FB6F894DEBF0FBE53
:100F0000CDBF09942A88398848885F846E847D849F
:100F10008C849B84AA84B984C884DF80EE80FD80A1
:100F20000C811B81AA81B981CE0FD11D0FB6F89417
:100F3000DEBF0FBECDBFED010895A29FB001B39FEC
:100F4000C001A39F700D811D1124911DB29F700DD2
:0C0F5000811D1124911D0895F894FFCF1D
:100F5C003734312E383532303936333D2F2A2D2B5C
:100F6C00074206420542044247726F7570203437BF
:100F7C0020536C61766500496E697469616C697A9D
:100F8C00696E672E2E2E2E00496E697420436F6D8C
:100F9C00706C657465642E00456E746572204C6FC0
:100FAC00636174696F6E004C6F6E6769747564650C
:100FBC0020202020202020004C6174697475646509
:100FCC002020202020202020004C6F6E3A20004C46
:060FDC0061743A200000E0
:00000001FF
